{
  "_format": "hh-sol-artifact-1",
  "contractName": "WagmiPostcard",
  "sourceName": "contracts/WagmiPostcard.sol",
  "abi": [
    {
      "inputs": [
        {
          "internalType": "string",
          "name": "baseURI",
          "type": "string"
        }
      ],
      "stateMutability": "nonpayable",
      "type": "constructor"
    },
    {
      "anonymous": false,
      "inputs": [
        {
          "indexed": true,
          "internalType": "address",
          "name": "owner",
          "type": "address"
        },
        {
          "indexed": true,
          "internalType": "address",
          "name": "approved",
          "type": "address"
        },
        {
          "indexed": true,
          "internalType": "uint256",
          "name": "tokenId",
          "type": "uint256"
        }
      ],
      "name": "Approval",
      "type": "event"
    },
    {
      "anonymous": false,
      "inputs": [
        {
          "indexed": true,
          "internalType": "address",
          "name": "owner",
          "type": "address"
        },
        {
          "indexed": true,
          "internalType": "address",
          "name": "operator",
          "type": "address"
        },
        {
          "indexed": false,
          "internalType": "bool",
          "name": "approved",
          "type": "bool"
        }
      ],
      "name": "ApprovalForAll",
      "type": "event"
    },
    {
      "anonymous": false,
      "inputs": [
        {
          "indexed": true,
          "internalType": "address",
          "name": "previousOwner",
          "type": "address"
        },
        {
          "indexed": true,
          "internalType": "address",
          "name": "newOwner",
          "type": "address"
        }
      ],
      "name": "OwnershipTransferred",
      "type": "event"
    },
    {
      "anonymous": false,
      "inputs": [
        {
          "indexed": true,
          "internalType": "address",
          "name": "from",
          "type": "address"
        },
        {
          "indexed": true,
          "internalType": "address",
          "name": "to",
          "type": "address"
        },
        {
          "indexed": true,
          "internalType": "uint256",
          "name": "tokenId",
          "type": "uint256"
        }
      ],
      "name": "Transfer",
      "type": "event"
    },
    {
      "stateMutability": "payable",
      "type": "fallback"
    },
    {
      "inputs": [],
      "name": "_price",
      "outputs": [
        {
          "internalType": "uint256",
          "name": "",
          "type": "uint256"
        }
      ],
      "stateMutability": "view",
      "type": "function"
    },
    {
      "inputs": [
        {
          "internalType": "address",
          "name": "to",
          "type": "address"
        },
        {
          "internalType": "uint256",
          "name": "tokenId",
          "type": "uint256"
        }
      ],
      "name": "approve",
      "outputs": [],
      "stateMutability": "nonpayable",
      "type": "function"
    },
    {
      "inputs": [
        {
          "internalType": "address",
          "name": "owner",
          "type": "address"
        }
      ],
      "name": "balanceOf",
      "outputs": [
        {
          "internalType": "uint256",
          "name": "",
          "type": "uint256"
        }
      ],
      "stateMutability": "view",
      "type": "function"
    },
    {
      "inputs": [
        {
          "internalType": "uint256",
          "name": "tokenId",
          "type": "uint256"
        }
      ],
      "name": "getApproved",
      "outputs": [
        {
          "internalType": "address",
          "name": "",
          "type": "address"
        }
      ],
      "stateMutability": "view",
      "type": "function"
    },
    {
      "inputs": [],
      "name": "getMintedCount",
      "outputs": [
        {
          "internalType": "uint256",
          "name": "",
          "type": "uint256"
        }
      ],
      "stateMutability": "view",
      "type": "function"
    },
    {
      "inputs": [
        {
          "internalType": "address",
          "name": "owner",
          "type": "address"
        },
        {
          "internalType": "address",
          "name": "operator",
          "type": "address"
        }
      ],
      "name": "isApprovedForAll",
      "outputs": [
        {
          "internalType": "bool",
          "name": "",
          "type": "bool"
        }
      ],
      "stateMutability": "view",
      "type": "function"
    },
    {
      "inputs": [
        {
          "internalType": "address payable",
          "name": "_artistEthAddress",
          "type": "address"
        },
        {
          "internalType": "address",
          "name": "recipientEthAddress",
          "type": "address"
        }
      ],
      "name": "mintWagmiPostcard",
      "outputs": [],
      "stateMutability": "payable",
      "type": "function"
    },
    {
      "inputs": [],
      "name": "name",
      "outputs": [
        {
          "internalType": "string",
          "name": "",
          "type": "string"
        }
      ],
      "stateMutability": "view",
      "type": "function"
    },
    {
      "inputs": [],
      "name": "owner",
      "outputs": [
        {
          "internalType": "address",
          "name": "",
          "type": "address"
        }
      ],
      "stateMutability": "view",
      "type": "function"
    },
    {
      "inputs": [
        {
          "internalType": "uint256",
          "name": "tokenId",
          "type": "uint256"
        }
      ],
      "name": "ownerOf",
      "outputs": [
        {
          "internalType": "address",
          "name": "",
          "type": "address"
        }
      ],
      "stateMutability": "view",
      "type": "function"
    },
    {
      "inputs": [],
      "name": "renounceOwnership",
      "outputs": [],
      "stateMutability": "nonpayable",
      "type": "function"
    },
    {
      "inputs": [
        {
          "internalType": "address",
          "name": "from",
          "type": "address"
        },
        {
          "internalType": "address",
          "name": "to",
          "type": "address"
        },
        {
          "internalType": "uint256",
          "name": "tokenId",
          "type": "uint256"
        }
      ],
      "name": "safeTransferFrom",
      "outputs": [],
      "stateMutability": "nonpayable",
      "type": "function"
    },
    {
      "inputs": [
        {
          "internalType": "address",
          "name": "from",
          "type": "address"
        },
        {
          "internalType": "address",
          "name": "to",
          "type": "address"
        },
        {
          "internalType": "uint256",
          "name": "tokenId",
          "type": "uint256"
        },
        {
          "internalType": "bytes",
          "name": "_data",
          "type": "bytes"
        }
      ],
      "name": "safeTransferFrom",
      "outputs": [],
      "stateMutability": "nonpayable",
      "type": "function"
    },
    {
      "inputs": [
        {
          "internalType": "address",
          "name": "operator",
          "type": "address"
        },
        {
          "internalType": "bool",
          "name": "approved",
          "type": "bool"
        }
      ],
      "name": "setApprovalForAll",
      "outputs": [],
      "stateMutability": "nonpayable",
      "type": "function"
    },
    {
      "inputs": [
        {
          "internalType": "bytes4",
          "name": "interfaceId",
          "type": "bytes4"
        }
      ],
      "name": "supportsInterface",
      "outputs": [
        {
          "internalType": "bool",
          "name": "",
          "type": "bool"
        }
      ],
      "stateMutability": "view",
      "type": "function"
    },
    {
      "inputs": [],
      "name": "symbol",
      "outputs": [
        {
          "internalType": "string",
          "name": "",
          "type": "string"
        }
      ],
      "stateMutability": "view",
      "type": "function"
    },
    {
      "inputs": [
        {
          "internalType": "uint256",
          "name": "tokenId",
          "type": "uint256"
        }
      ],
      "name": "tokenURI",
      "outputs": [
        {
          "internalType": "string",
          "name": "",
          "type": "string"
        }
      ],
      "stateMutability": "view",
      "type": "function"
    },
    {
      "inputs": [
        {
          "internalType": "address",
          "name": "from",
          "type": "address"
        },
        {
          "internalType": "address",
          "name": "to",
          "type": "address"
        },
        {
          "internalType": "uint256",
          "name": "tokenId",
          "type": "uint256"
        }
      ],
      "name": "transferFrom",
      "outputs": [],
      "stateMutability": "nonpayable",
      "type": "function"
    },
    {
      "inputs": [
        {
          "internalType": "address",
          "name": "newOwner",
          "type": "address"
        }
      ],
      "name": "transferOwnership",
      "outputs": [],
      "stateMutability": "nonpayable",
      "type": "function"
    },
    {
      "inputs": [],
      "name": "withdrawEther",
      "outputs": [],
      "stateMutability": "nonpayable",
      "type": "function"
    },
    {
      "stateMutability": "payable",
      "type": "receive"
    }
  ],
  "bytecode": "0x60806040526658d15e176280006009553480156200001c57600080fd5b506040516200384e3803806200384e833981810160405281019062000042919062000312565b6040518060400160405280600f81526020017f7761676d692d706f7374636172647300000000000000000000000000000000008152506040518060400160405280600e81526020017f5741474d49504f535443415244530000000000000000000000000000000000008152508160009080519060200190620000c6929190620001f0565b508060019080519060200190620000df929190620001f0565b50505062000102620000f66200012260201b60201c565b6200012a60201b60201c565b80600a90805190602001906200011a929190620001f0565b5050620004c7565b600033905090565b6000600760009054906101000a900473ffffffffffffffffffffffffffffffffffffffff16905081600760006101000a81548173ffffffffffffffffffffffffffffffffffffffff021916908373ffffffffffffffffffffffffffffffffffffffff1602179055508173ffffffffffffffffffffffffffffffffffffffff168173ffffffffffffffffffffffffffffffffffffffff167f8be0079c531659141344cd1fd0a4f28419497f9722a3daafe3b4186f6b6457e060405160405180910390a35050565b828054620001fe90620003ec565b90600052602060002090601f0160209004810192826200022257600085556200026e565b82601f106200023d57805160ff19168380011785556200026e565b828001600101855582156200026e579182015b828111156200026d57825182559160200191906001019062000250565b5b5090506200027d919062000281565b5090565b5b808211156200029c57600081600090555060010162000282565b5090565b6000620002b7620002b18462000380565b62000357565b905082815260208101848484011115620002d057600080fd5b620002dd848285620003b6565b509392505050565b600082601f830112620002f757600080fd5b815162000309848260208601620002a0565b91505092915050565b6000602082840312156200032557600080fd5b600082015167ffffffffffffffff8111156200034057600080fd5b6200034e84828501620002e5565b91505092915050565b60006200036362000376565b905062000371828262000422565b919050565b6000604051905090565b600067ffffffffffffffff8211156200039e576200039d62000487565b5b620003a982620004b6565b9050602081019050919050565b60005b83811015620003d6578082015181840152602081019050620003b9565b83811115620003e6576000848401525b50505050565b600060028204905060018216806200040557607f821691505b602082108114156200041c576200041b62000458565b5b50919050565b6200042d82620004b6565b810181811067ffffffffffffffff821117156200044f576200044e62000487565b5b80604052505050565b7f4e487b7100000000000000000000000000000000000000000000000000000000600052602260045260246000fd5b7f4e487b7100000000000000000000000000000000000000000000000000000000600052604160045260246000fd5b6000601f19601f8301169050919050565b61337780620004d76000396000f3fe6080604052600436106101235760003560e01c80637362377b116100a0578063c87b56dd11610064578063c87b56dd146103c7578063e985e9c514610404578063e9b0695814610441578063ebc9bd3b1461045d578063f2fde38b146104885761012a565b80637362377b146103085780638da5cb5b1461031f57806395d89b411461034a578063a22cb46514610375578063b88d4fde1461039e5761012a565b806323b872dd116100e757806323b872dd1461022557806342842e0e1461024e5780636352211e1461027757806370a08231146102b4578063715018a6146102f15761012a565b806301ffc9a71461012c57806306fdde0314610169578063081812fc14610194578063095ea7b3146101d1578063235b6ea1146101fa5761012a565b3661012a57005b005b34801561013857600080fd5b50610153600480360381019061014e9190612210565b6104b1565b60405161016091906126da565b60405180910390f35b34801561017557600080fd5b5061017e610593565b60405161018b91906126f5565b60405180910390f35b3480156101a057600080fd5b506101bb60048036038101906101b69190612262565b610625565b6040516101c89190612673565b60405180910390f35b3480156101dd57600080fd5b506101f860048036038101906101f391906121d4565b6106aa565b005b34801561020657600080fd5b5061020f6107c2565b60405161021c9190612997565b60405180910390f35b34801561023157600080fd5b5061024c600480360381019061024791906120ce565b6107c8565b005b34801561025a57600080fd5b50610275600480360381019061027091906120ce565b610828565b005b34801561028357600080fd5b5061029e60048036038101906102999190612262565b610848565b6040516102ab9190612673565b60405180910390f35b3480156102c057600080fd5b506102db60048036038101906102d6919061202d565b6108fa565b6040516102e89190612997565b60405180910390f35b3480156102fd57600080fd5b506103066109b2565b005b34801561031457600080fd5b5061031d610a3a565b005b34801561032b57600080fd5b50610334610b78565b6040516103419190612673565b60405180910390f35b34801561035657600080fd5b5061035f610ba2565b60405161036c91906126f5565b60405180910390f35b34801561038157600080fd5b5061039c60048036038101906103979190612198565b610c34565b005b3480156103aa57600080fd5b506103c560048036038101906103c0919061211d565b610c4a565b005b3480156103d357600080fd5b506103ee60048036038101906103e99190612262565b610cac565b6040516103fb91906126f5565b60405180910390f35b34801561041057600080fd5b5061042b60048036038101906104269190612092565b610dfe565b60405161043891906126da565b60405180910390f35b61045b60048036038101906104569190612056565b610e92565b005b34801561046957600080fd5b50610472610fb2565b60405161047f9190612997565b60405180910390f35b34801561049457600080fd5b506104af60048036038101906104aa919061202d565b610fc3565b005b60007f80ac58cd000000000000000000000000000000000000000000000000000000007bffffffffffffffffffffffffffffffffffffffffffffffffffffffff1916827bffffffffffffffffffffffffffffffffffffffffffffffffffffffff1916148061057c57507f5b5e139f000000000000000000000000000000000000000000000000000000007bffffffffffffffffffffffffffffffffffffffffffffffffffffffff1916827bffffffffffffffffffffffffffffffffffffffffffffffffffffffff1916145b8061058c575061058b826110bb565b5b9050919050565b6060600080546105a290612bd9565b80601f01602080910402602001604051908101604052809291908181526020018280546105ce90612bd9565b801561061b5780601f106105f05761010080835404028352916020019161061b565b820191906000526020600020905b8154815290600101906020018083116105fe57829003601f168201915b5050505050905090565b600061063082611125565b61066f576040517f08c379a0000000000000000000000000000000000000000000000000000000008152600401610666906128d7565b60405180910390fd5b6004600083815260200190815260200160002060009054906101000a900473ffffffffffffffffffffffffffffffffffffffff169050919050565b60006106b582610848565b90508073ffffffffffffffffffffffffffffffffffffffff168373ffffffffffffffffffffffffffffffffffffffff161415610726576040517f08c379a000000000000000000000000000000000000000000000000000000000815260040161071d90612957565b60405180910390fd5b8073ffffffffffffffffffffffffffffffffffffffff16610745611191565b73ffffffffffffffffffffffffffffffffffffffff16148061077457506107738161076e611191565b610dfe565b5b6107b3576040517f08c379a00000000000000000000000000000000000000000000000000000000081526004016107aa90612837565b60405180910390fd5b6107bd8383611199565b505050565b60095481565b6107d96107d3611191565b82611252565b610818576040517f08c379a000000000000000000000000000000000000000000000000000000000815260040161080f90612977565b60405180910390fd5b610823838383611330565b505050565b61084383838360405180602001604052806000815250610c4a565b505050565b6000806002600084815260200190815260200160002060009054906101000a900473ffffffffffffffffffffffffffffffffffffffff169050600073ffffffffffffffffffffffffffffffffffffffff168173ffffffffffffffffffffffffffffffffffffffff1614156108f1576040517f08c379a00000000000000000000000000000000000000000000000000000000081526004016108e890612877565b60405180910390fd5b80915050919050565b60008073ffffffffffffffffffffffffffffffffffffffff168273ffffffffffffffffffffffffffffffffffffffff16141561096b576040517f08c379a000000000000000000000000000000000000000000000000000000000815260040161096290612857565b60405180910390fd5b600360008373ffffffffffffffffffffffffffffffffffffffff1673ffffffffffffffffffffffffffffffffffffffff168152602001908152602001600020549050919050565b6109ba611191565b73ffffffffffffffffffffffffffffffffffffffff166109d8610b78565b73ffffffffffffffffffffffffffffffffffffffff1614610a2e576040517f08c379a0000000000000000000000000000000000000000000000000000000008152600401610a25906128f7565b60405180910390fd5b610a386000611597565b565b610a42611191565b73ffffffffffffffffffffffffffffffffffffffff16610a60610b78565b73ffffffffffffffffffffffffffffffffffffffff1614610ab6576040517f08c379a0000000000000000000000000000000000000000000000000000000008152600401610aad906128f7565b60405180910390fd5b6000610ac0610b78565b9050600047905060008273ffffffffffffffffffffffffffffffffffffffff1682604051610aed9061265e565b60006040518083038185875af1925050503d8060008114610b2a576040519150601f19603f3d011682016040523d82523d6000602084013e610b2f565b606091505b5050905080610b73576040517f08c379a0000000000000000000000000000000000000000000000000000000008152600401610b6a90612937565b60405180910390fd5b505050565b6000600760009054906101000a900473ffffffffffffffffffffffffffffffffffffffff16905090565b606060018054610bb190612bd9565b80601f0160208091040260200160405190810160405280929190818152602001828054610bdd90612bd9565b8015610c2a5780601f10610bff57610100808354040283529160200191610c2a565b820191906000526020600020905b815481529060010190602001808311610c0d57829003601f168201915b5050505050905090565b610c46610c3f611191565b838361165d565b5050565b610c5b610c55611191565b83611252565b610c9a576040517f08c379a0000000000000000000000000000000000000000000000000000000008152600401610c9190612977565b60405180910390fd5b610ca6848484846117ca565b50505050565b6060610cb782611125565b610cf6576040517f08c379a0000000000000000000000000000000000000000000000000000000008152600401610ced906128b7565b60405180910390fd5b6000600660008481526020019081526020016000208054610d1690612bd9565b80601f0160208091040260200160405190810160405280929190818152602001828054610d4290612bd9565b8015610d8f5780601f10610d6457610100808354040283529160200191610d8f565b820191906000526020600020905b815481529060010190602001808311610d7257829003601f168201915b505050505090506000610da0611826565b9050600081511415610db6578192505050610df9565b600082511115610deb578082604051602001610dd392919061263a565b60405160208183030381529060405292505050610df9565b610df4846118b8565b925050505b919050565b6000600560008473ffffffffffffffffffffffffffffffffffffffff1673ffffffffffffffffffffffffffffffffffffffff16815260200190815260200160002060008373ffffffffffffffffffffffffffffffffffffffff1673ffffffffffffffffffffffffffffffffffffffff16815260200190815260200160002060009054906101000a900460ff16905092915050565b600954341015610ed7576040517f08c379a0000000000000000000000000000000000000000000000000000000008152600401610ece906127b7565b60405180910390fd5b60008273ffffffffffffffffffffffffffffffffffffffff166627147114878000604051610f049061265e565b60006040518083038185875af1925050503d8060008114610f41576040519150601f19603f3d011682016040523d82523d6000602084013e610f46565b606091505b5050905080610f8a576040517f08c379a0000000000000000000000000000000000000000000000000000000008152600401610f8190612797565b60405180910390fd5b6000610f96600861195f565b9050610fa2838261196d565b610fac600861198b565b50505050565b6000610fbe600861195f565b905090565b610fcb611191565b73ffffffffffffffffffffffffffffffffffffffff16610fe9610b78565b73ffffffffffffffffffffffffffffffffffffffff161461103f576040517f08c379a0000000000000000000000000000000000000000000000000000000008152600401611036906128f7565b60405180910390fd5b600073ffffffffffffffffffffffffffffffffffffffff168173ffffffffffffffffffffffffffffffffffffffff1614156110af576040517f08c379a00000000000000000000000000000000000000000000000000000000081526004016110a690612737565b60405180910390fd5b6110b881611597565b50565b60007f01ffc9a7000000000000000000000000000000000000000000000000000000007bffffffffffffffffffffffffffffffffffffffffffffffffffffffff1916827bffffffffffffffffffffffffffffffffffffffffffffffffffffffff1916149050919050565b60008073ffffffffffffffffffffffffffffffffffffffff166002600084815260200190815260200160002060009054906101000a900473ffffffffffffffffffffffffffffffffffffffff1673ffffffffffffffffffffffffffffffffffffffff1614159050919050565b600033905090565b816004600083815260200190815260200160002060006101000a81548173ffffffffffffffffffffffffffffffffffffffff021916908373ffffffffffffffffffffffffffffffffffffffff160217905550808273ffffffffffffffffffffffffffffffffffffffff1661120c83610848565b73ffffffffffffffffffffffffffffffffffffffff167f8c5be1e5ebec7d5bd14f71427d1e84f3dd0314c0f7b2291e5b200ac8c7c3b92560405160405180910390a45050565b600061125d82611125565b61129c576040517f08c379a000000000000000000000000000000000000000000000000000000000815260040161129390612817565b60405180910390fd5b60006112a783610848565b90508073ffffffffffffffffffffffffffffffffffffffff168473ffffffffffffffffffffffffffffffffffffffff16148061131657508373ffffffffffffffffffffffffffffffffffffffff166112fe84610625565b73ffffffffffffffffffffffffffffffffffffffff16145b8061132757506113268185610dfe565b5b91505092915050565b8273ffffffffffffffffffffffffffffffffffffffff1661135082610848565b73ffffffffffffffffffffffffffffffffffffffff16146113a6576040517f08c379a000000000000000000000000000000000000000000000000000000000815260040161139d90612757565b60405180910390fd5b600073ffffffffffffffffffffffffffffffffffffffff168273ffffffffffffffffffffffffffffffffffffffff161415611416576040517f08c379a000000000000000000000000000000000000000000000000000000000815260040161140d906127d7565b60405180910390fd5b6114218383836119a1565b61142c600082611199565b6001600360008573ffffffffffffffffffffffffffffffffffffffff1673ffffffffffffffffffffffffffffffffffffffff168152602001908152602001600020600082825461147c9190612add565b925050819055506001600360008473ffffffffffffffffffffffffffffffffffffffff1673ffffffffffffffffffffffffffffffffffffffff16815260200190815260200160002060008282546114d39190612a56565b92505081905550816002600083815260200190815260200160002060006101000a81548173ffffffffffffffffffffffffffffffffffffffff021916908373ffffffffffffffffffffffffffffffffffffffff160217905550808273ffffffffffffffffffffffffffffffffffffffff168473ffffffffffffffffffffffffffffffffffffffff167fddf252ad1be2c89b69c2b068fc378daa952ba7f163c4a11628f55a4df523b3ef60405160405180910390a46115928383836119a6565b505050565b6000600760009054906101000a900473ffffffffffffffffffffffffffffffffffffffff16905081600760006101000a81548173ffffffffffffffffffffffffffffffffffffffff021916908373ffffffffffffffffffffffffffffffffffffffff1602179055508173ffffffffffffffffffffffffffffffffffffffff168173ffffffffffffffffffffffffffffffffffffffff167f8be0079c531659141344cd1fd0a4f28419497f9722a3daafe3b4186f6b6457e060405160405180910390a35050565b8173ffffffffffffffffffffffffffffffffffffffff168373ffffffffffffffffffffffffffffffffffffffff1614156116cc576040517f08c379a00000000000000000000000000000000000000000000000000000000081526004016116c3906127f7565b60405180910390fd5b80600560008573ffffffffffffffffffffffffffffffffffffffff1673ffffffffffffffffffffffffffffffffffffffff16815260200190815260200160002060008473ffffffffffffffffffffffffffffffffffffffff1673ffffffffffffffffffffffffffffffffffffffff16815260200190815260200160002060006101000a81548160ff0219169083151502179055508173ffffffffffffffffffffffffffffffffffffffff168373ffffffffffffffffffffffffffffffffffffffff167f17307eab39ab6107e8899845ad3d59bd9653f200f220920489ca2b5937696c31836040516117bd91906126da565b60405180910390a3505050565b6117d5848484611330565b6117e1848484846119ab565b611820576040517f08c379a000000000000000000000000000000000000000000000000000000000815260040161181790612717565b60405180910390fd5b50505050565b6060600a805461183590612bd9565b80601f016020809104026020016040519081016040528092919081815260200182805461186190612bd9565b80156118ae5780601f10611883576101008083540402835291602001916118ae565b820191906000526020600020905b81548152906001019060200180831161189157829003601f168201915b5050505050905090565b60606118c382611125565b611902576040517f08c379a00000000000000000000000000000000000000000000000000000000081526004016118f990612917565b60405180910390fd5b600061190c611826565b9050600081511161192c5760405180602001604052806000815250611957565b8061193684611b42565b60405160200161194792919061263a565b6040516020818303038152906040525b915050919050565b600081600001549050919050565b611987828260405180602001604052806000815250611cef565b5050565b6001816000016000828254019250508190555050565b505050565b505050565b60006119cc8473ffffffffffffffffffffffffffffffffffffffff16611d4a565b15611b35578373ffffffffffffffffffffffffffffffffffffffff1663150b7a026119f5611191565b8786866040518563ffffffff1660e01b8152600401611a17949392919061268e565b602060405180830381600087803b158015611a3157600080fd5b505af1925050508015611a6257506040513d601f19601f82011682018060405250810190611a5f9190612239565b60015b611ae5573d8060008114611a92576040519150601f19603f3d011682016040523d82523d6000602084013e611a97565b606091505b50600081511415611add576040517f08c379a0000000000000000000000000000000000000000000000000000000008152600401611ad490612717565b60405180910390fd5b805181602001fd5b63150b7a0260e01b7bffffffffffffffffffffffffffffffffffffffffffffffffffffffff1916817bffffffffffffffffffffffffffffffffffffffffffffffffffffffff191614915050611b3a565b600190505b949350505050565b60606000821415611b8a576040518060400160405280600181526020017f30000000000000000000000000000000000000000000000000000000000000008152509050611cea565b600082905060005b60008214611bbc578080611ba590612c3c565b915050600a82611bb59190612aac565b9150611b92565b60008167ffffffffffffffff811115611bfe577f4e487b7100000000000000000000000000000000000000000000000000000000600052604160045260246000fd5b6040519080825280601f01601f191660200182016040528015611c305781602001600182028036833780820191505090505b5090505b60008514611ce357600182611c499190612add565b9150600a85611c589190612c85565b6030611c649190612a56565b60f81b818381518110611ca0577f4e487b7100000000000000000000000000000000000000000000000000000000600052603260045260246000fd5b60200101907effffffffffffffffffffffffffffffffffffffffffffffffffffffffffffff1916908160001a905350600a85611cdc9190612aac565b9450611c34565b8093505050505b919050565b611cf98383611d6d565b611d0660008484846119ab565b611d45576040517f08c379a0000000000000000000000000000000000000000000000000000000008152600401611d3c90612717565b60405180910390fd5b505050565b6000808273ffffffffffffffffffffffffffffffffffffffff163b119050919050565b600073ffffffffffffffffffffffffffffffffffffffff168273ffffffffffffffffffffffffffffffffffffffff161415611ddd576040517f08c379a0000000000000000000000000000000000000000000000000000000008152600401611dd490612897565b60405180910390fd5b611de681611125565b15611e26576040517f08c379a0000000000000000000000000000000000000000000000000000000008152600401611e1d90612777565b60405180910390fd5b611e32600083836119a1565b6001600360008473ffffffffffffffffffffffffffffffffffffffff1673ffffffffffffffffffffffffffffffffffffffff1681526020019081526020016000206000828254611e829190612a56565b92505081905550816002600083815260200190815260200160002060006101000a81548173ffffffffffffffffffffffffffffffffffffffff021916908373ffffffffffffffffffffffffffffffffffffffff160217905550808273ffffffffffffffffffffffffffffffffffffffff16600073ffffffffffffffffffffffffffffffffffffffff167fddf252ad1be2c89b69c2b068fc378daa952ba7f163c4a11628f55a4df523b3ef60405160405180910390a4611f43600083836119a6565b5050565b6000611f5a611f55846129d7565b6129b2565b905082815260208101848484011115611f7257600080fd5b611f7d848285612b97565b509392505050565b600081359050611f94816132ce565b92915050565b600081359050611fa9816132e5565b92915050565b600081359050611fbe816132fc565b92915050565b600081359050611fd381613313565b92915050565b600081519050611fe881613313565b92915050565b600082601f830112611fff57600080fd5b813561200f848260208601611f47565b91505092915050565b6000813590506120278161332a565b92915050565b60006020828403121561203f57600080fd5b600061204d84828501611f85565b91505092915050565b6000806040838503121561206957600080fd5b600061207785828601611f9a565b925050602061208885828601611f85565b9150509250929050565b600080604083850312156120a557600080fd5b60006120b385828601611f85565b92505060206120c485828601611f85565b9150509250929050565b6000806000606084860312156120e357600080fd5b60006120f186828701611f85565b935050602061210286828701611f85565b925050604061211386828701612018565b9150509250925092565b6000806000806080858703121561213357600080fd5b600061214187828801611f85565b945050602061215287828801611f85565b935050604061216387828801612018565b925050606085013567ffffffffffffffff81111561218057600080fd5b61218c87828801611fee565b91505092959194509250565b600080604083850312156121ab57600080fd5b60006121b985828601611f85565b92505060206121ca85828601611faf565b9150509250929050565b600080604083850312156121e757600080fd5b60006121f585828601611f85565b925050602061220685828601612018565b9150509250929050565b60006020828403121561222257600080fd5b600061223084828501611fc4565b91505092915050565b60006020828403121561224b57600080fd5b600061225984828501611fd9565b91505092915050565b60006020828403121561227457600080fd5b600061228284828501612018565b91505092915050565b61229481612b11565b82525050565b6122a381612b35565b82525050565b60006122b482612a08565b6122be8185612a1e565b93506122ce818560208601612ba6565b6122d781612d72565b840191505092915050565b60006122ed82612a13565b6122f78185612a3a565b9350612307818560208601612ba6565b61231081612d72565b840191505092915050565b600061232682612a13565b6123308185612a4b565b9350612340818560208601612ba6565b80840191505092915050565b6000612359603283612a3a565b915061236482612d83565b604082019050919050565b600061237c602683612a3a565b915061238782612dd2565b604082019050919050565b600061239f602583612a3a565b91506123aa82612e21565b604082019050919050565b60006123c2601c83612a3a565b91506123cd82612e70565b602082019050919050565b60006123e5601e83612a3a565b91506123f082612e99565b602082019050919050565b6000612408602983612a3a565b915061241382612ec2565b604082019050919050565b600061242b602483612a3a565b915061243682612f11565b604082019050919050565b600061244e601983612a3a565b915061245982612f60565b602082019050919050565b6000612471602c83612a3a565b915061247c82612f89565b604082019050919050565b6000612494603883612a3a565b915061249f82612fd8565b604082019050919050565b60006124b7602a83612a3a565b91506124c282613027565b604082019050919050565b60006124da602983612a3a565b91506124e582613076565b604082019050919050565b60006124fd602083612a3a565b9150612508826130c5565b602082019050919050565b6000612520603183612a3a565b915061252b826130ee565b604082019050919050565b6000612543602c83612a3a565b915061254e8261313d565b604082019050919050565b6000612566602083612a3a565b91506125718261318c565b602082019050919050565b6000612589602f83612a3a565b9150612594826131b5565b604082019050919050565b60006125ac601283612a3a565b91506125b782613204565b602082019050919050565b60006125cf602183612a3a565b91506125da8261322d565b604082019050919050565b60006125f2600083612a2f565b91506125fd8261327c565b600082019050919050565b6000612615603183612a3a565b91506126208261327f565b604082019050919050565b61263481612b8d565b82525050565b6000612646828561231b565b9150612652828461231b565b91508190509392505050565b6000612669826125e5565b9150819050919050565b6000602082019050612688600083018461228b565b92915050565b60006080820190506126a3600083018761228b565b6126b0602083018661228b565b6126bd604083018561262b565b81810360608301526126cf81846122a9565b905095945050505050565b60006020820190506126ef600083018461229a565b92915050565b6000602082019050818103600083015261270f81846122e2565b905092915050565b600060208201905081810360008301526127308161234c565b9050919050565b600060208201905081810360008301526127508161236f565b9050919050565b6000602082019050818103600083015261277081612392565b9050919050565b60006020820190508181036000830152612790816123b5565b9050919050565b600060208201905081810360008301526127b0816123d8565b9050919050565b600060208201905081810360008301526127d0816123fb565b9050919050565b600060208201905081810360008301526127f08161241e565b9050919050565b6000602082019050818103600083015261281081612441565b9050919050565b6000602082019050818103600083015261283081612464565b9050919050565b6000602082019050818103600083015261285081612487565b9050919050565b60006020820190508181036000830152612870816124aa565b9050919050565b60006020820190508181036000830152612890816124cd565b9050919050565b600060208201905081810360008301526128b0816124f0565b9050919050565b600060208201905081810360008301526128d081612513565b9050919050565b600060208201905081810360008301526128f081612536565b9050919050565b6000602082019050818103600083015261291081612559565b9050919050565b600060208201905081810360008301526129308161257c565b9050919050565b600060208201905081810360008301526129508161259f565b9050919050565b60006020820190508181036000830152612970816125c2565b9050919050565b6000602082019050818103600083015261299081612608565b9050919050565b60006020820190506129ac600083018461262b565b92915050565b60006129bc6129cd565b90506129c88282612c0b565b919050565b6000604051905090565b600067ffffffffffffffff8211156129f2576129f1612d43565b5b6129fb82612d72565b9050602081019050919050565b600081519050919050565b600081519050919050565b600082825260208201905092915050565b600081905092915050565b600082825260208201905092915050565b600081905092915050565b6000612a6182612b8d565b9150612a6c83612b8d565b9250827fffffffffffffffffffffffffffffffffffffffffffffffffffffffffffffffff03821115612aa157612aa0612cb6565b5b828201905092915050565b6000612ab782612b8d565b9150612ac283612b8d565b925082612ad257612ad1612ce5565b5b828204905092915050565b6000612ae882612b8d565b9150612af383612b8d565b925082821015612b0657612b05612cb6565b5b828203905092915050565b6000612b1c82612b6d565b9050919050565b6000612b2e82612b6d565b9050919050565b60008115159050919050565b60007fffffffff0000000000000000000000000000000000000000000000000000000082169050919050565b600073ffffffffffffffffffffffffffffffffffffffff82169050919050565b6000819050919050565b82818337600083830152505050565b60005b83811015612bc4578082015181840152602081019050612ba9565b83811115612bd3576000848401525b50505050565b60006002820490506001821680612bf157607f821691505b60208210811415612c0557612c04612d14565b5b50919050565b612c1482612d72565b810181811067ffffffffffffffff82111715612c3357612c32612d43565b5b80604052505050565b6000612c4782612b8d565b91507fffffffffffffffffffffffffffffffffffffffffffffffffffffffffffffffff821415612c7a57612c79612cb6565b5b600182019050919050565b6000612c9082612b8d565b9150612c9b83612b8d565b925082612cab57612caa612ce5565b5b828206905092915050565b7f4e487b7100000000000000000000000000000000000000000000000000000000600052601160045260246000fd5b7f4e487b7100000000000000000000000000000000000000000000000000000000600052601260045260246000fd5b7f4e487b7100000000000000000000000000000000000000000000000000000000600052602260045260246000fd5b7f4e487b7100000000000000000000000000000000000000000000000000000000600052604160045260246000fd5b6000601f19601f8301169050919050565b7f4552433732313a207472616e7366657220746f206e6f6e20455243373231526560008201527f63656976657220696d706c656d656e7465720000000000000000000000000000602082015250565b7f4f776e61626c653a206e6577206f776e657220697320746865207a65726f206160008201527f6464726573730000000000000000000000000000000000000000000000000000602082015250565b7f4552433732313a207472616e736665722066726f6d20696e636f72726563742060008201527f6f776e6572000000000000000000000000000000000000000000000000000000602082015250565b7f4552433732313a20746f6b656e20616c7265616479206d696e74656400000000600082015250565b7f6661696c656420746f2073656e6420657468657220746f206172746973740000600082015250565b7f45616368205761676d6920706f737463617264204e465420636f73747320302e60008201527f3031332065746865720000000000000000000000000000000000000000000000602082015250565b7f4552433732313a207472616e7366657220746f20746865207a65726f2061646460008201527f7265737300000000000000000000000000000000000000000000000000000000602082015250565b7f4552433732313a20617070726f766520746f2063616c6c657200000000000000600082015250565b7f4552433732313a206f70657261746f7220717565727920666f72206e6f6e657860008201527f697374656e7420746f6b656e0000000000000000000000000000000000000000602082015250565b7f4552433732313a20617070726f76652063616c6c6572206973206e6f74206f7760008201527f6e6572206e6f7220617070726f76656420666f7220616c6c0000000000000000602082015250565b7f4552433732313a2062616c616e636520717565727920666f7220746865207a6560008201527f726f206164647265737300000000000000000000000000000000000000000000602082015250565b7f4552433732313a206f776e657220717565727920666f72206e6f6e657869737460008201527f656e7420746f6b656e0000000000000000000000000000000000000000000000602082015250565b7f4552433732313a206d696e7420746f20746865207a65726f2061646472657373600082015250565b7f45524337323155524953746f726167653a2055524920717565727920666f722060008201527f6e6f6e6578697374656e7420746f6b656e000000000000000000000000000000602082015250565b7f4552433732313a20617070726f76656420717565727920666f72206e6f6e657860008201527f697374656e7420746f6b656e0000000000000000000000000000000000000000602082015250565b7f4f776e61626c653a2063616c6c6572206973206e6f7420746865206f776e6572600082015250565b7f4552433732314d657461646174613a2055524920717565727920666f72206e6f60008201527f6e6578697374656e7420746f6b656e0000000000000000000000000000000000602082015250565b7f6661696c656420746f2077697468647261770000000000000000000000000000600082015250565b7f4552433732313a20617070726f76616c20746f2063757272656e74206f776e6560008201527f7200000000000000000000000000000000000000000000000000000000000000602082015250565b50565b7f4552433732313a207472616e736665722063616c6c6572206973206e6f74206f60008201527f776e6572206e6f7220617070726f766564000000000000000000000000000000602082015250565b6132d781612b11565b81146132e257600080fd5b50565b6132ee81612b23565b81146132f957600080fd5b50565b61330581612b35565b811461331057600080fd5b50565b61331c81612b41565b811461332757600080fd5b50565b61333381612b8d565b811461333e57600080fd5b5056fea2646970667358221220934404f9120c2bc6dcee8bc6cff731aba52443835b3b42e92614206fa451ff2c64736f6c63430008040033",
  "linkReferences": {},
  "deployedLinkReferences": {}
}