{
  "_format": "hh-sol-artifact-1",
  "contractName": "WagmiPostcard",
  "sourceName": "contracts/WagmiPostcard.sol",
  "abi": [
    {
      "inputs": [],
      "stateMutability": "nonpayable",
      "type": "constructor"
    },
    {
      "anonymous": false,
      "inputs": [
        {
          "indexed": true,
          "internalType": "address",
          "name": "owner",
          "type": "address"
        },
        {
          "indexed": true,
          "internalType": "address",
          "name": "approved",
          "type": "address"
        },
        {
          "indexed": true,
          "internalType": "uint256",
          "name": "tokenId",
          "type": "uint256"
        }
      ],
      "name": "Approval",
      "type": "event"
    },
    {
      "anonymous": false,
      "inputs": [
        {
          "indexed": true,
          "internalType": "address",
          "name": "owner",
          "type": "address"
        },
        {
          "indexed": true,
          "internalType": "address",
          "name": "operator",
          "type": "address"
        },
        {
          "indexed": false,
          "internalType": "bool",
          "name": "approved",
          "type": "bool"
        }
      ],
      "name": "ApprovalForAll",
      "type": "event"
    },
    {
      "anonymous": false,
      "inputs": [
        {
          "indexed": true,
          "internalType": "address",
          "name": "previousOwner",
          "type": "address"
        },
        {
          "indexed": true,
          "internalType": "address",
          "name": "newOwner",
          "type": "address"
        }
      ],
      "name": "OwnershipTransferred",
      "type": "event"
    },
    {
      "anonymous": false,
      "inputs": [
        {
          "indexed": true,
          "internalType": "address",
          "name": "from",
          "type": "address"
        },
        {
          "indexed": true,
          "internalType": "address",
          "name": "to",
          "type": "address"
        },
        {
          "indexed": true,
          "internalType": "uint256",
          "name": "tokenId",
          "type": "uint256"
        }
      ],
      "name": "Transfer",
      "type": "event"
    },
    {
      "stateMutability": "payable",
      "type": "fallback"
    },
    {
      "inputs": [],
      "name": "_price",
      "outputs": [
        {
          "internalType": "uint256",
          "name": "",
          "type": "uint256"
        }
      ],
      "stateMutability": "view",
      "type": "function"
    },
    {
      "inputs": [
        {
          "internalType": "address",
          "name": "to",
          "type": "address"
        },
        {
          "internalType": "uint256",
          "name": "tokenId",
          "type": "uint256"
        }
      ],
      "name": "approve",
      "outputs": [],
      "stateMutability": "nonpayable",
      "type": "function"
    },
    {
      "inputs": [
        {
          "internalType": "address",
          "name": "owner",
          "type": "address"
        }
      ],
      "name": "balanceOf",
      "outputs": [
        {
          "internalType": "uint256",
          "name": "",
          "type": "uint256"
        }
      ],
      "stateMutability": "view",
      "type": "function"
    },
    {
      "inputs": [
        {
          "internalType": "uint256",
          "name": "tokenId",
          "type": "uint256"
        }
      ],
      "name": "getApproved",
      "outputs": [
        {
          "internalType": "address",
          "name": "",
          "type": "address"
        }
      ],
      "stateMutability": "view",
      "type": "function"
    },
    {
      "inputs": [],
      "name": "getMintedCount",
      "outputs": [
        {
          "internalType": "uint256",
          "name": "",
          "type": "uint256"
        }
      ],
      "stateMutability": "view",
      "type": "function"
    },
    {
      "inputs": [
        {
          "internalType": "address",
          "name": "owner",
          "type": "address"
        },
        {
          "internalType": "address",
          "name": "operator",
          "type": "address"
        }
      ],
      "name": "isApprovedForAll",
      "outputs": [
        {
          "internalType": "bool",
          "name": "",
          "type": "bool"
        }
      ],
      "stateMutability": "view",
      "type": "function"
    },
    {
      "inputs": [
        {
          "internalType": "string",
          "name": "_tokenURI",
          "type": "string"
        },
        {
          "internalType": "address payable",
          "name": "_artistEthAddress",
          "type": "address"
        },
        {
          "internalType": "address",
          "name": "recipientEthAddress",
          "type": "address"
        }
      ],
      "name": "mintWagmiPostcard",
      "outputs": [],
      "stateMutability": "payable",
      "type": "function"
    },
    {
      "inputs": [],
      "name": "name",
      "outputs": [
        {
          "internalType": "string",
          "name": "",
          "type": "string"
        }
      ],
      "stateMutability": "view",
      "type": "function"
    },
    {
      "inputs": [],
      "name": "owner",
      "outputs": [
        {
          "internalType": "address",
          "name": "",
          "type": "address"
        }
      ],
      "stateMutability": "view",
      "type": "function"
    },
    {
      "inputs": [
        {
          "internalType": "uint256",
          "name": "tokenId",
          "type": "uint256"
        }
      ],
      "name": "ownerOf",
      "outputs": [
        {
          "internalType": "address",
          "name": "",
          "type": "address"
        }
      ],
      "stateMutability": "view",
      "type": "function"
    },
    {
      "inputs": [],
      "name": "renounceOwnership",
      "outputs": [],
      "stateMutability": "nonpayable",
      "type": "function"
    },
    {
      "inputs": [
        {
          "internalType": "address",
          "name": "from",
          "type": "address"
        },
        {
          "internalType": "address",
          "name": "to",
          "type": "address"
        },
        {
          "internalType": "uint256",
          "name": "tokenId",
          "type": "uint256"
        }
      ],
      "name": "safeTransferFrom",
      "outputs": [],
      "stateMutability": "nonpayable",
      "type": "function"
    },
    {
      "inputs": [
        {
          "internalType": "address",
          "name": "from",
          "type": "address"
        },
        {
          "internalType": "address",
          "name": "to",
          "type": "address"
        },
        {
          "internalType": "uint256",
          "name": "tokenId",
          "type": "uint256"
        },
        {
          "internalType": "bytes",
          "name": "_data",
          "type": "bytes"
        }
      ],
      "name": "safeTransferFrom",
      "outputs": [],
      "stateMutability": "nonpayable",
      "type": "function"
    },
    {
      "inputs": [
        {
          "internalType": "address",
          "name": "operator",
          "type": "address"
        },
        {
          "internalType": "bool",
          "name": "approved",
          "type": "bool"
        }
      ],
      "name": "setApprovalForAll",
      "outputs": [],
      "stateMutability": "nonpayable",
      "type": "function"
    },
    {
      "inputs": [
        {
          "internalType": "bytes4",
          "name": "interfaceId",
          "type": "bytes4"
        }
      ],
      "name": "supportsInterface",
      "outputs": [
        {
          "internalType": "bool",
          "name": "",
          "type": "bool"
        }
      ],
      "stateMutability": "view",
      "type": "function"
    },
    {
      "inputs": [],
      "name": "symbol",
      "outputs": [
        {
          "internalType": "string",
          "name": "",
          "type": "string"
        }
      ],
      "stateMutability": "view",
      "type": "function"
    },
    {
      "inputs": [
        {
          "internalType": "uint256",
          "name": "tokenId",
          "type": "uint256"
        }
      ],
      "name": "tokenURI",
      "outputs": [
        {
          "internalType": "string",
          "name": "",
          "type": "string"
        }
      ],
      "stateMutability": "view",
      "type": "function"
    },
    {
      "inputs": [
        {
          "internalType": "address",
          "name": "from",
          "type": "address"
        },
        {
          "internalType": "address",
          "name": "to",
          "type": "address"
        },
        {
          "internalType": "uint256",
          "name": "tokenId",
          "type": "uint256"
        }
      ],
      "name": "transferFrom",
      "outputs": [],
      "stateMutability": "nonpayable",
      "type": "function"
    },
    {
      "inputs": [
        {
          "internalType": "address",
          "name": "newOwner",
          "type": "address"
        }
      ],
      "name": "transferOwnership",
      "outputs": [],
      "stateMutability": "nonpayable",
      "type": "function"
    },
    {
      "inputs": [],
      "name": "withdrawEther",
      "outputs": [],
      "stateMutability": "nonpayable",
      "type": "function"
    },
    {
      "stateMutability": "payable",
      "type": "receive"
    }
  ],
  "bytecode": "0x6080604052662e2f6e5e1480006009553480156200001c57600080fd5b506040518060400160405280600f81526020017f7761676d692d706f7374636172647300000000000000000000000000000000008152506040518060400160405280600e81526020017f5741474d49504f535443415244530000000000000000000000000000000000008152508160009080519060200190620000a1929190620001b1565b508060019080519060200190620000ba929190620001b1565b505050620000dd620000d1620000e360201b60201c565b620000eb60201b60201c565b620002c6565b600033905090565b6000600760009054906101000a900473ffffffffffffffffffffffffffffffffffffffff16905081600760006101000a81548173ffffffffffffffffffffffffffffffffffffffff021916908373ffffffffffffffffffffffffffffffffffffffff1602179055508173ffffffffffffffffffffffffffffffffffffffff168173ffffffffffffffffffffffffffffffffffffffff167f8be0079c531659141344cd1fd0a4f28419497f9722a3daafe3b4186f6b6457e060405160405180910390a35050565b828054620001bf9062000261565b90600052602060002090601f016020900481019282620001e357600085556200022f565b82601f10620001fe57805160ff19168380011785556200022f565b828001600101855582156200022f579182015b828111156200022e57825182559160200191906001019062000211565b5b5090506200023e919062000242565b5090565b5b808211156200025d57600081600090555060010162000243565b5090565b600060028204905060018216806200027a57607f821691505b6020821081141562000291576200029062000297565b5b50919050565b7f4e487b7100000000000000000000000000000000000000000000000000000000600052602260045260246000fd5b61357480620002d66000396000f3fe6080604052600436106101235760003560e01c8063715018a6116100a0578063b88d4fde11610064578063b88d4fde146103ba578063c87b56dd146103e3578063e985e9c514610420578063ebc9bd3b1461045d578063f2fde38b146104885761012a565b8063715018a61461030d5780637362377b146103245780638da5cb5b1461033b57806395d89b4114610366578063a22cb465146103915761012a565b806323b872dd116100e757806323b872dd14610225578063334fd08c1461024e57806342842e0e1461026a5780636352211e1461029357806370a08231146102d05761012a565b806301ffc9a71461012c57806306fdde0314610169578063081812fc14610194578063095ea7b3146101d1578063235b6ea1146101fa5761012a565b3661012a57005b005b34801561013857600080fd5b50610153600480360381019061014e91906122e3565b6104b1565b6040516101609190612837565b60405180910390f35b34801561017557600080fd5b5061017e610593565b60405161018b9190612852565b60405180910390f35b3480156101a057600080fd5b506101bb60048036038101906101b6919061239c565b610625565b6040516101c891906127d0565b60405180910390f35b3480156101dd57600080fd5b506101f860048036038101906101f391906122a7565b6106aa565b005b34801561020657600080fd5b5061020f6107c2565b60405161021c9190612b14565b60405180910390f35b34801561023157600080fd5b5061024c600480360381019061024791906121a1565b6107c8565b005b61026860048036038101906102639190612335565b610828565b005b34801561027657600080fd5b50610291600480360381019061028c91906121a1565b610953565b005b34801561029f57600080fd5b506102ba60048036038101906102b5919061239c565b610973565b6040516102c791906127d0565b60405180910390f35b3480156102dc57600080fd5b506102f760048036038101906102f2919061213c565b610a25565b6040516103049190612b14565b60405180910390f35b34801561031957600080fd5b50610322610add565b005b34801561033057600080fd5b50610339610b65565b005b34801561034757600080fd5b50610350610ca3565b60405161035d91906127d0565b60405180910390f35b34801561037257600080fd5b5061037b610ccd565b6040516103889190612852565b60405180910390f35b34801561039d57600080fd5b506103b860048036038101906103b3919061226b565b610d5f565b005b3480156103c657600080fd5b506103e160048036038101906103dc91906121f0565b610d75565b005b3480156103ef57600080fd5b5061040a6004803603810190610405919061239c565b610dd7565b6040516104179190612852565b60405180910390f35b34801561042c57600080fd5b5061044760048036038101906104429190612165565b610f29565b6040516104549190612837565b60405180910390f35b34801561046957600080fd5b50610472610fbd565b60405161047f9190612b14565b60405180910390f35b34801561049457600080fd5b506104af60048036038101906104aa919061213c565b610fce565b005b60007f80ac58cd000000000000000000000000000000000000000000000000000000007bffffffffffffffffffffffffffffffffffffffffffffffffffffffff1916827bffffffffffffffffffffffffffffffffffffffffffffffffffffffff1916148061057c57507f5b5e139f000000000000000000000000000000000000000000000000000000007bffffffffffffffffffffffffffffffffffffffffffffffffffffffff1916827bffffffffffffffffffffffffffffffffffffffffffffffffffffffff1916145b8061058c575061058b826110c6565b5b9050919050565b6060600080546105a290612d87565b80601f01602080910402602001604051908101604052809291908181526020018280546105ce90612d87565b801561061b5780601f106105f05761010080835404028352916020019161061b565b820191906000526020600020905b8154815290600101906020018083116105fe57829003601f168201915b5050505050905090565b600061063082611130565b61066f576040517f08c379a000000000000000000000000000000000000000000000000000000000815260040161066690612a54565b60405180910390fd5b6004600083815260200190815260200160002060009054906101000a900473ffffffffffffffffffffffffffffffffffffffff169050919050565b60006106b582610973565b90508073ffffffffffffffffffffffffffffffffffffffff168373ffffffffffffffffffffffffffffffffffffffff161415610726576040517f08c379a000000000000000000000000000000000000000000000000000000000815260040161071d90612ad4565b60405180910390fd5b8073ffffffffffffffffffffffffffffffffffffffff1661074561119c565b73ffffffffffffffffffffffffffffffffffffffff16148061077457506107738161076e61119c565b610f29565b5b6107b3576040517f08c379a00000000000000000000000000000000000000000000000000000000081526004016107aa90612994565b60405180910390fd5b6107bd83836111a4565b505050565b60095481565b6107d96107d361119c565b8261125d565b610818576040517f08c379a000000000000000000000000000000000000000000000000000000000815260040161080f90612af4565b60405180910390fd5b61082383838361133b565b505050565b60095434101561086d576040517f08c379a000000000000000000000000000000000000000000000000000000000815260040161086490612914565b60405180910390fd5b60008273ffffffffffffffffffffffffffffffffffffffff16661717b72f0a400060405161089a906127bb565b60006040518083038185875af1925050503d80600081146108d7576040519150601f19603f3d011682016040523d82523d6000602084013e6108dc565b606091505b5050905080610920576040517f08c379a0000000000000000000000000000000000000000000000000000000008152600401610917906128f4565b60405180910390fd5b600061092c60086115a2565b905061093883826115b0565b61094281866115ce565b61094c6008611642565b5050505050565b61096e83838360405180602001604052806000815250610d75565b505050565b6000806002600084815260200190815260200160002060009054906101000a900473ffffffffffffffffffffffffffffffffffffffff169050600073ffffffffffffffffffffffffffffffffffffffff168173ffffffffffffffffffffffffffffffffffffffff161415610a1c576040517f08c379a0000000000000000000000000000000000000000000000000000000008152600401610a13906129d4565b60405180910390fd5b80915050919050565b60008073ffffffffffffffffffffffffffffffffffffffff168273ffffffffffffffffffffffffffffffffffffffff161415610a96576040517f08c379a0000000000000000000000000000000000000000000000000000000008152600401610a8d906129b4565b60405180910390fd5b600360008373ffffffffffffffffffffffffffffffffffffffff1673ffffffffffffffffffffffffffffffffffffffff168152602001908152602001600020549050919050565b610ae561119c565b73ffffffffffffffffffffffffffffffffffffffff16610b03610ca3565b73ffffffffffffffffffffffffffffffffffffffff1614610b59576040517f08c379a0000000000000000000000000000000000000000000000000000000008152600401610b5090612a74565b60405180910390fd5b610b636000611658565b565b610b6d61119c565b73ffffffffffffffffffffffffffffffffffffffff16610b8b610ca3565b73ffffffffffffffffffffffffffffffffffffffff1614610be1576040517f08c379a0000000000000000000000000000000000000000000000000000000008152600401610bd890612a74565b60405180910390fd5b6000610beb610ca3565b9050600047905060008273ffffffffffffffffffffffffffffffffffffffff1682604051610c18906127bb565b60006040518083038185875af1925050503d8060008114610c55576040519150601f19603f3d011682016040523d82523d6000602084013e610c5a565b606091505b5050905080610c9e576040517f08c379a0000000000000000000000000000000000000000000000000000000008152600401610c9590612ab4565b60405180910390fd5b505050565b6000600760009054906101000a900473ffffffffffffffffffffffffffffffffffffffff16905090565b606060018054610cdc90612d87565b80601f0160208091040260200160405190810160405280929190818152602001828054610d0890612d87565b8015610d555780601f10610d2a57610100808354040283529160200191610d55565b820191906000526020600020905b815481529060010190602001808311610d3857829003601f168201915b5050505050905090565b610d71610d6a61119c565b838361171e565b5050565b610d86610d8061119c565b8361125d565b610dc5576040517f08c379a0000000000000000000000000000000000000000000000000000000008152600401610dbc90612af4565b60405180910390fd5b610dd18484848461188b565b50505050565b6060610de282611130565b610e21576040517f08c379a0000000000000000000000000000000000000000000000000000000008152600401610e1890612a34565b60405180910390fd5b6000600660008481526020019081526020016000208054610e4190612d87565b80601f0160208091040260200160405190810160405280929190818152602001828054610e6d90612d87565b8015610eba5780601f10610e8f57610100808354040283529160200191610eba565b820191906000526020600020905b815481529060010190602001808311610e9d57829003601f168201915b505050505090506000610ecb6118e7565b9050600081511415610ee1578192505050610f24565b600082511115610f16578082604051602001610efe929190612797565b60405160208183030381529060405292505050610f24565b610f1f846118fe565b925050505b919050565b6000600560008473ffffffffffffffffffffffffffffffffffffffff1673ffffffffffffffffffffffffffffffffffffffff16815260200190815260200160002060008373ffffffffffffffffffffffffffffffffffffffff1673ffffffffffffffffffffffffffffffffffffffff16815260200190815260200160002060009054906101000a900460ff16905092915050565b6000610fc960086115a2565b905090565b610fd661119c565b73ffffffffffffffffffffffffffffffffffffffff16610ff4610ca3565b73ffffffffffffffffffffffffffffffffffffffff161461104a576040517f08c379a000000000000000000000000000000000000000000000000000000000815260040161104190612a74565b60405180910390fd5b600073ffffffffffffffffffffffffffffffffffffffff168173ffffffffffffffffffffffffffffffffffffffff1614156110ba576040517f08c379a00000000000000000000000000000000000000000000000000000000081526004016110b190612894565b60405180910390fd5b6110c381611658565b50565b60007f01ffc9a7000000000000000000000000000000000000000000000000000000007bffffffffffffffffffffffffffffffffffffffffffffffffffffffff1916827bffffffffffffffffffffffffffffffffffffffffffffffffffffffff1916149050919050565b60008073ffffffffffffffffffffffffffffffffffffffff166002600084815260200190815260200160002060009054906101000a900473ffffffffffffffffffffffffffffffffffffffff1673ffffffffffffffffffffffffffffffffffffffff1614159050919050565b600033905090565b816004600083815260200190815260200160002060006101000a81548173ffffffffffffffffffffffffffffffffffffffff021916908373ffffffffffffffffffffffffffffffffffffffff160217905550808273ffffffffffffffffffffffffffffffffffffffff1661121783610973565b73ffffffffffffffffffffffffffffffffffffffff167f8c5be1e5ebec7d5bd14f71427d1e84f3dd0314c0f7b2291e5b200ac8c7c3b92560405160405180910390a45050565b600061126882611130565b6112a7576040517f08c379a000000000000000000000000000000000000000000000000000000000815260040161129e90612974565b60405180910390fd5b60006112b283610973565b90508073ffffffffffffffffffffffffffffffffffffffff168473ffffffffffffffffffffffffffffffffffffffff16148061132157508373ffffffffffffffffffffffffffffffffffffffff1661130984610625565b73ffffffffffffffffffffffffffffffffffffffff16145b8061133257506113318185610f29565b5b91505092915050565b8273ffffffffffffffffffffffffffffffffffffffff1661135b82610973565b73ffffffffffffffffffffffffffffffffffffffff16146113b1576040517f08c379a00000000000000000000000000000000000000000000000000000000081526004016113a8906128b4565b60405180910390fd5b600073ffffffffffffffffffffffffffffffffffffffff168273ffffffffffffffffffffffffffffffffffffffff161415611421576040517f08c379a000000000000000000000000000000000000000000000000000000000815260040161141890612934565b60405180910390fd5b61142c8383836119a5565b6114376000826111a4565b6001600360008573ffffffffffffffffffffffffffffffffffffffff1673ffffffffffffffffffffffffffffffffffffffff16815260200190815260200160002060008282546114879190612c8b565b925050819055506001600360008473ffffffffffffffffffffffffffffffffffffffff1673ffffffffffffffffffffffffffffffffffffffff16815260200190815260200160002060008282546114de9190612c04565b92505081905550816002600083815260200190815260200160002060006101000a81548173ffffffffffffffffffffffffffffffffffffffff021916908373ffffffffffffffffffffffffffffffffffffffff160217905550808273ffffffffffffffffffffffffffffffffffffffff168473ffffffffffffffffffffffffffffffffffffffff167fddf252ad1be2c89b69c2b068fc378daa952ba7f163c4a11628f55a4df523b3ef60405160405180910390a461159d8383836119aa565b505050565b600081600001549050919050565b6115ca8282604051806020016040528060008152506119af565b5050565b6115d782611130565b611616576040517f08c379a000000000000000000000000000000000000000000000000000000000815260040161160d906129f4565b60405180910390fd5b8060066000848152602001908152602001600020908051906020019061163d929190611f4b565b505050565b6001816000016000828254019250508190555050565b6000600760009054906101000a900473ffffffffffffffffffffffffffffffffffffffff16905081600760006101000a81548173ffffffffffffffffffffffffffffffffffffffff021916908373ffffffffffffffffffffffffffffffffffffffff1602179055508173ffffffffffffffffffffffffffffffffffffffff168173ffffffffffffffffffffffffffffffffffffffff167f8be0079c531659141344cd1fd0a4f28419497f9722a3daafe3b4186f6b6457e060405160405180910390a35050565b8173ffffffffffffffffffffffffffffffffffffffff168373ffffffffffffffffffffffffffffffffffffffff16141561178d576040517f08c379a000000000000000000000000000000000000000000000000000000000815260040161178490612954565b60405180910390fd5b80600560008573ffffffffffffffffffffffffffffffffffffffff1673ffffffffffffffffffffffffffffffffffffffff16815260200190815260200160002060008473ffffffffffffffffffffffffffffffffffffffff1673ffffffffffffffffffffffffffffffffffffffff16815260200190815260200160002060006101000a81548160ff0219169083151502179055508173ffffffffffffffffffffffffffffffffffffffff168373ffffffffffffffffffffffffffffffffffffffff167f17307eab39ab6107e8899845ad3d59bd9653f200f220920489ca2b5937696c318360405161187e9190612837565b60405180910390a3505050565b61189684848461133b565b6118a284848484611a0a565b6118e1576040517f08c379a00000000000000000000000000000000000000000000000000000000081526004016118d890612874565b60405180910390fd5b50505050565b606060405180602001604052806000815250905090565b606061190982611130565b611948576040517f08c379a000000000000000000000000000000000000000000000000000000000815260040161193f90612a94565b60405180910390fd5b60006119526118e7565b90506000815111611972576040518060200160405280600081525061199d565b8061197c84611ba1565b60405160200161198d929190612797565b6040516020818303038152906040525b915050919050565b505050565b505050565b6119b98383611d4e565b6119c66000848484611a0a565b611a05576040517f08c379a00000000000000000000000000000000000000000000000000000000081526004016119fc90612874565b60405180910390fd5b505050565b6000611a2b8473ffffffffffffffffffffffffffffffffffffffff16611f28565b15611b94578373ffffffffffffffffffffffffffffffffffffffff1663150b7a02611a5461119c565b8786866040518563ffffffff1660e01b8152600401611a7694939291906127eb565b602060405180830381600087803b158015611a9057600080fd5b505af1925050508015611ac157506040513d601f19601f82011682018060405250810190611abe919061230c565b60015b611b44573d8060008114611af1576040519150601f19603f3d011682016040523d82523d6000602084013e611af6565b606091505b50600081511415611b3c576040517f08c379a0000000000000000000000000000000000000000000000000000000008152600401611b3390612874565b60405180910390fd5b805181602001fd5b63150b7a0260e01b7bffffffffffffffffffffffffffffffffffffffffffffffffffffffff1916817bffffffffffffffffffffffffffffffffffffffffffffffffffffffff191614915050611b99565b600190505b949350505050565b60606000821415611be9576040518060400160405280600181526020017f30000000000000000000000000000000000000000000000000000000000000008152509050611d49565b600082905060005b60008214611c1b578080611c0490612dea565b915050600a82611c149190612c5a565b9150611bf1565b60008167ffffffffffffffff811115611c5d577f4e487b7100000000000000000000000000000000000000000000000000000000600052604160045260246000fd5b6040519080825280601f01601f191660200182016040528015611c8f5781602001600182028036833780820191505090505b5090505b60008514611d4257600182611ca89190612c8b565b9150600a85611cb79190612e33565b6030611cc39190612c04565b60f81b818381518110611cff577f4e487b7100000000000000000000000000000000000000000000000000000000600052603260045260246000fd5b60200101907effffffffffffffffffffffffffffffffffffffffffffffffffffffffffffff1916908160001a905350600a85611d3b9190612c5a565b9450611c93565b8093505050505b919050565b600073ffffffffffffffffffffffffffffffffffffffff168273ffffffffffffffffffffffffffffffffffffffff161415611dbe576040517f08c379a0000000000000000000000000000000000000000000000000000000008152600401611db590612a14565b60405180910390fd5b611dc781611130565b15611e07576040517f08c379a0000000000000000000000000000000000000000000000000000000008152600401611dfe906128d4565b60405180910390fd5b611e13600083836119a5565b6001600360008473ffffffffffffffffffffffffffffffffffffffff1673ffffffffffffffffffffffffffffffffffffffff1681526020019081526020016000206000828254611e639190612c04565b92505081905550816002600083815260200190815260200160002060006101000a81548173ffffffffffffffffffffffffffffffffffffffff021916908373ffffffffffffffffffffffffffffffffffffffff160217905550808273ffffffffffffffffffffffffffffffffffffffff16600073ffffffffffffffffffffffffffffffffffffffff167fddf252ad1be2c89b69c2b068fc378daa952ba7f163c4a11628f55a4df523b3ef60405160405180910390a4611f24600083836119aa565b5050565b6000808273ffffffffffffffffffffffffffffffffffffffff163b119050919050565b828054611f5790612d87565b90600052602060002090601f016020900481019282611f795760008555611fc0565b82601f10611f9257805160ff1916838001178555611fc0565b82800160010185558215611fc0579182015b82811115611fbf578251825591602001919060010190611fa4565b5b509050611fcd9190611fd1565b5090565b5b80821115611fea576000816000905550600101611fd2565b5090565b6000612001611ffc84612b54565b612b2f565b90508281526020810184848401111561201957600080fd5b612024848285612d45565b509392505050565b600061203f61203a84612b85565b612b2f565b90508281526020810184848401111561205757600080fd5b612062848285612d45565b509392505050565b600081359050612079816134cb565b92915050565b60008135905061208e816134e2565b92915050565b6000813590506120a3816134f9565b92915050565b6000813590506120b881613510565b92915050565b6000815190506120cd81613510565b92915050565b600082601f8301126120e457600080fd5b81356120f4848260208601611fee565b91505092915050565b600082601f83011261210e57600080fd5b813561211e84826020860161202c565b91505092915050565b60008135905061213681613527565b92915050565b60006020828403121561214e57600080fd5b600061215c8482850161206a565b91505092915050565b6000806040838503121561217857600080fd5b60006121868582860161206a565b92505060206121978582860161206a565b9150509250929050565b6000806000606084860312156121b657600080fd5b60006121c48682870161206a565b93505060206121d58682870161206a565b92505060406121e686828701612127565b9150509250925092565b6000806000806080858703121561220657600080fd5b60006122148782880161206a565b94505060206122258782880161206a565b935050604061223687828801612127565b925050606085013567ffffffffffffffff81111561225357600080fd5b61225f878288016120d3565b91505092959194509250565b6000806040838503121561227e57600080fd5b600061228c8582860161206a565b925050602061229d85828601612094565b9150509250929050565b600080604083850312156122ba57600080fd5b60006122c88582860161206a565b92505060206122d985828601612127565b9150509250929050565b6000602082840312156122f557600080fd5b6000612303848285016120a9565b91505092915050565b60006020828403121561231e57600080fd5b600061232c848285016120be565b91505092915050565b60008060006060848603121561234a57600080fd5b600084013567ffffffffffffffff81111561236457600080fd5b612370868287016120fd565b93505060206123818682870161207f565b92505060406123928682870161206a565b9150509250925092565b6000602082840312156123ae57600080fd5b60006123bc84828501612127565b91505092915050565b6123ce81612cbf565b82525050565b6123dd81612ce3565b82525050565b60006123ee82612bb6565b6123f88185612bcc565b9350612408818560208601612d54565b61241181612f20565b840191505092915050565b600061242782612bc1565b6124318185612be8565b9350612441818560208601612d54565b61244a81612f20565b840191505092915050565b600061246082612bc1565b61246a8185612bf9565b935061247a818560208601612d54565b80840191505092915050565b6000612493603283612be8565b915061249e82612f31565b604082019050919050565b60006124b6602683612be8565b91506124c182612f80565b604082019050919050565b60006124d9602583612be8565b91506124e482612fcf565b604082019050919050565b60006124fc601c83612be8565b91506125078261301e565b602082019050919050565b600061251f601e83612be8565b915061252a82613047565b602082019050919050565b6000612542602983612be8565b915061254d82613070565b604082019050919050565b6000612565602483612be8565b9150612570826130bf565b604082019050919050565b6000612588601983612be8565b91506125938261310e565b602082019050919050565b60006125ab602c83612be8565b91506125b682613137565b604082019050919050565b60006125ce603883612be8565b91506125d982613186565b604082019050919050565b60006125f1602a83612be8565b91506125fc826131d5565b604082019050919050565b6000612614602983612be8565b915061261f82613224565b604082019050919050565b6000612637602e83612be8565b915061264282613273565b604082019050919050565b600061265a602083612be8565b9150612665826132c2565b602082019050919050565b600061267d603183612be8565b9150612688826132eb565b604082019050919050565b60006126a0602c83612be8565b91506126ab8261333a565b604082019050919050565b60006126c3602083612be8565b91506126ce82613389565b602082019050919050565b60006126e6602f83612be8565b91506126f1826133b2565b604082019050919050565b6000612709601283612be8565b915061271482613401565b602082019050919050565b600061272c602183612be8565b91506127378261342a565b604082019050919050565b600061274f600083612bdd565b915061275a82613479565b600082019050919050565b6000612772603183612be8565b915061277d8261347c565b604082019050919050565b61279181612d3b565b82525050565b60006127a38285612455565b91506127af8284612455565b91508190509392505050565b60006127c682612742565b9150819050919050565b60006020820190506127e560008301846123c5565b92915050565b600060808201905061280060008301876123c5565b61280d60208301866123c5565b61281a6040830185612788565b818103606083015261282c81846123e3565b905095945050505050565b600060208201905061284c60008301846123d4565b92915050565b6000602082019050818103600083015261286c818461241c565b905092915050565b6000602082019050818103600083015261288d81612486565b9050919050565b600060208201905081810360008301526128ad816124a9565b9050919050565b600060208201905081810360008301526128cd816124cc565b9050919050565b600060208201905081810360008301526128ed816124ef565b9050919050565b6000602082019050818103600083015261290d81612512565b9050919050565b6000602082019050818103600083015261292d81612535565b9050919050565b6000602082019050818103600083015261294d81612558565b9050919050565b6000602082019050818103600083015261296d8161257b565b9050919050565b6000602082019050818103600083015261298d8161259e565b9050919050565b600060208201905081810360008301526129ad816125c1565b9050919050565b600060208201905081810360008301526129cd816125e4565b9050919050565b600060208201905081810360008301526129ed81612607565b9050919050565b60006020820190508181036000830152612a0d8161262a565b9050919050565b60006020820190508181036000830152612a2d8161264d565b9050919050565b60006020820190508181036000830152612a4d81612670565b9050919050565b60006020820190508181036000830152612a6d81612693565b9050919050565b60006020820190508181036000830152612a8d816126b6565b9050919050565b60006020820190508181036000830152612aad816126d9565b9050919050565b60006020820190508181036000830152612acd816126fc565b9050919050565b60006020820190508181036000830152612aed8161271f565b9050919050565b60006020820190508181036000830152612b0d81612765565b9050919050565b6000602082019050612b296000830184612788565b92915050565b6000612b39612b4a565b9050612b458282612db9565b919050565b6000604051905090565b600067ffffffffffffffff821115612b6f57612b6e612ef1565b5b612b7882612f20565b9050602081019050919050565b600067ffffffffffffffff821115612ba057612b9f612ef1565b5b612ba982612f20565b9050602081019050919050565b600081519050919050565b600081519050919050565b600082825260208201905092915050565b600081905092915050565b600082825260208201905092915050565b600081905092915050565b6000612c0f82612d3b565b9150612c1a83612d3b565b9250827fffffffffffffffffffffffffffffffffffffffffffffffffffffffffffffffff03821115612c4f57612c4e612e64565b5b828201905092915050565b6000612c6582612d3b565b9150612c7083612d3b565b925082612c8057612c7f612e93565b5b828204905092915050565b6000612c9682612d3b565b9150612ca183612d3b565b925082821015612cb457612cb3612e64565b5b828203905092915050565b6000612cca82612d1b565b9050919050565b6000612cdc82612d1b565b9050919050565b60008115159050919050565b60007fffffffff0000000000000000000000000000000000000000000000000000000082169050919050565b600073ffffffffffffffffffffffffffffffffffffffff82169050919050565b6000819050919050565b82818337600083830152505050565b60005b83811015612d72578082015181840152602081019050612d57565b83811115612d81576000848401525b50505050565b60006002820490506001821680612d9f57607f821691505b60208210811415612db357612db2612ec2565b5b50919050565b612dc282612f20565b810181811067ffffffffffffffff82111715612de157612de0612ef1565b5b80604052505050565b6000612df582612d3b565b91507fffffffffffffffffffffffffffffffffffffffffffffffffffffffffffffffff821415612e2857612e27612e64565b5b600182019050919050565b6000612e3e82612d3b565b9150612e4983612d3b565b925082612e5957612e58612e93565b5b828206905092915050565b7f4e487b7100000000000000000000000000000000000000000000000000000000600052601160045260246000fd5b7f4e487b7100000000000000000000000000000000000000000000000000000000600052601260045260246000fd5b7f4e487b7100000000000000000000000000000000000000000000000000000000600052602260045260246000fd5b7f4e487b7100000000000000000000000000000000000000000000000000000000600052604160045260246000fd5b6000601f19601f8301169050919050565b7f4552433732313a207472616e7366657220746f206e6f6e20455243373231526560008201527f63656976657220696d706c656d656e7465720000000000000000000000000000602082015250565b7f4f776e61626c653a206e6577206f776e657220697320746865207a65726f206160008201527f6464726573730000000000000000000000000000000000000000000000000000602082015250565b7f4552433732313a207472616e736665722066726f6d20696e636f72726563742060008201527f6f776e6572000000000000000000000000000000000000000000000000000000602082015250565b7f4552433732313a20746f6b656e20616c7265616479206d696e74656400000000600082015250565b7f6661696c656420746f2073656e6420657468657220746f206172746973740000600082015250565b7f45616368205761676d6920706f737463617264204e465420636f73747320302e60008201527f3031332065746865720000000000000000000000000000000000000000000000602082015250565b7f4552433732313a207472616e7366657220746f20746865207a65726f2061646460008201527f7265737300000000000000000000000000000000000000000000000000000000602082015250565b7f4552433732313a20617070726f766520746f2063616c6c657200000000000000600082015250565b7f4552433732313a206f70657261746f7220717565727920666f72206e6f6e657860008201527f697374656e7420746f6b656e0000000000000000000000000000000000000000602082015250565b7f4552433732313a20617070726f76652063616c6c6572206973206e6f74206f7760008201527f6e6572206e6f7220617070726f76656420666f7220616c6c0000000000000000602082015250565b7f4552433732313a2062616c616e636520717565727920666f7220746865207a6560008201527f726f206164647265737300000000000000000000000000000000000000000000602082015250565b7f4552433732313a206f776e657220717565727920666f72206e6f6e657869737460008201527f656e7420746f6b656e0000000000000000000000000000000000000000000000602082015250565b7f45524337323155524953746f726167653a2055524920736574206f66206e6f6e60008201527f6578697374656e7420746f6b656e000000000000000000000000000000000000602082015250565b7f4552433732313a206d696e7420746f20746865207a65726f2061646472657373600082015250565b7f45524337323155524953746f726167653a2055524920717565727920666f722060008201527f6e6f6e6578697374656e7420746f6b656e000000000000000000000000000000602082015250565b7f4552433732313a20617070726f76656420717565727920666f72206e6f6e657860008201527f697374656e7420746f6b656e0000000000000000000000000000000000000000602082015250565b7f4f776e61626c653a2063616c6c6572206973206e6f7420746865206f776e6572600082015250565b7f4552433732314d657461646174613a2055524920717565727920666f72206e6f60008201527f6e6578697374656e7420746f6b656e0000000000000000000000000000000000602082015250565b7f6661696c656420746f2077697468647261770000000000000000000000000000600082015250565b7f4552433732313a20617070726f76616c20746f2063757272656e74206f776e6560008201527f7200000000000000000000000000000000000000000000000000000000000000602082015250565b50565b7f4552433732313a207472616e736665722063616c6c6572206973206e6f74206f60008201527f776e6572206e6f7220617070726f766564000000000000000000000000000000602082015250565b6134d481612cbf565b81146134df57600080fd5b50565b6134eb81612cd1565b81146134f657600080fd5b50565b61350281612ce3565b811461350d57600080fd5b50565b61351981612cef565b811461352457600080fd5b50565b61353081612d3b565b811461353b57600080fd5b5056fea2646970667358221220baa9cbda3cb77cd2666d23c630dc9aadd9cbdd260a0d1879728da96560ca030964736f6c63430008040033",
  "linkReferences": {},
  "deployedLinkReferences": {}
}